0987000000000170C2018-05-2414.01.02000000000198                                                                                                                                                                                                                                                                                                                                                                                                                                                                                                                                                                                                                                                                                                                                                                                                                                                                                                                                                                                         
0987000000000170D                                                                                           000000000001098700010000000000025176081136288807      OP000000000001152PESO DE CHILE                 0NORMAL         3001CARGA TRANSFERENCIA           2018-06-0400000000000000000000000000                              -00000000000000000-00000000000030000000000000885199000000000000021                           6012INSTITUCIONES FINANCIAERAS    -00000000000030000152PESO DE CHILE                 -000000000000000002018-06-04152CHILE                                                   2018-05-23MAUTAUTORIZADOR         0000                    000001377743000000000000000000000000000                      00                                        +0000000000000000000000080012018-06-0400000000000000002N0NO ANULADO0MOVIMIENTO NO RETENIDO0PENDIENTE                                        0000000000000000000000+000000000000000001CREDITO   LREV                    00                    00000000    
0987000000000170D                                                                                           000000000002098700010000000000025176081136288807      OP000000000002152PESO DE CHILE                 0NORMAL         3001CARGA TRANSFERENCIA           2018-05-2900000000000000000000000000                              -00000000000000000-00000000000010000000000000789779000000000000021                           6012INSTITUCIONES FINANCIAERAS    -00000000000010000152PESO DE CHILE                 -000000000000000002018-05-31152CHILE                                                   2018-05-23MAUTAUTORIZADOR         0000                    000001377479000000000000000000000000000                      00                                        +0000000000000000000000020012018-05-3100000000000000002N0NO ANULADO0MOVIMIENTO NO RETENIDO0PENDIENTE                                        0000000000000000000000+000000000000000001CREDITO   LREV                    00                    00000000    
0987000000000170D                                                                                           000000000003098700010000000000025176081136288807      OP000000000003152PESO DE CHILE                 0NORMAL         3001CARGA TRANSFERENCIA           2018-06-0400000000000000000000000000                              -00000000000000000-00000000000030000000000000784199000000000000021                           6012INSTITUCIONES FINANCIAERAS    -00000000000030000152PESO DE CHILE                 -000000000000000002018-06-04152CHILE                                                   2018-05-23MAUTAUTORIZADOR         0000                    000001377742000000000000000000000000000                      00                                        +0000000000000000000000070012018-06-0400000000000000002N0NO ANULADO0MOVIMIENTO NO RETENIDO0PENDIENTE                                        0000000000000000000000+000000000000000001CREDITO   LREV                    00                    00000000    
0987000000000170D                                                                                           000000000004098700010000000000025176081136288807      OP000000000004152PESO DE CHILE                 0NORMAL         3001CARGA TRANSFERENCIA           2018-06-0400000000000000000000000000                              -00000000000000000-00000000000030000000000000785199000000000000021                           6012INSTITUCIONES FINANCIAERAS    -00000000000030000152PESO DE CHILE                 -000000000000000002018-06-06152CHILE                                                   2018-05-23MAUTAUTORIZADOR         0000                    000001377790000000000000000000000000000                      00                                        +0000000000000000000000130012018-06-0600000000000000002N0NO ANULADO0MOVIMIENTO NO RETENIDO0PENDIENTE                                        0000000000000000000000+000000000000000001CREDITO   LREV                    00                    00000000    
0987000000000170D                                                                                           000000000005098700010000000000025176081136288807      OP000000000005152PESO DE CHILE                 0NORMAL         3001CARGA TRANSFERENCIA           2018-05-2900000000000000000000000000                              -00000000000000000-00000000000010000000000000789698000000000000021                           6012INSTITUCIONES FINANCIAERAS    -00000000000010000152PESO DE CHILE                 -000000000000000002018-05-31152CHILE                                                   2018-05-23MAUTAUTORIZADOR         0000                    000001377464000000000000000000000000000                      00                                        +0000000000000000000000010012018-05-3100000000000000002N0NO ANULADO0MOVIMIENTO NO RETENIDO0PENDIENTE                                        0000000000000000000000+000000000000000001CREDITO   LREV                    00                    00000000    
0987000000000170D                                                                                           000000000006098700010000000000025176081136288807      OP000000000006152PESO DE CHILE                 0NORMAL         3005REEMISION DE TARJETA          2018-06-0500000000000000000000000000                              +00000000000000000+00000000000000100000000000474199000000000000021                           6012INSTITUCIONES FINANCIAERAS    +00000000000000100152PESO DE CHILE                 +000000000000000002018-06-05152CHILE                                                   2018-05-23MAUTAUTORIZADOR         0000                    000001377749000000000000000000000000000                      00                                        +0000000000000000000000120012018-06-0500000000000000002N0NO ANULADO0MOVIMIENTO NO RETENIDO0PENDIENTE                                        0000000000000000000000+000000000000000001CREDITO   LREV                    00                    00000000    
0987000000000170D                                                                                           000000000007098700010000000000025176081136288807      OP000000000007152PESO DE CHILE                 0NORMAL         3001CARGA TRANSFERENCIA           2018-05-2900000000000000000000000000                              -00000000000000000-00000000000030000000000000782799000000000000021                           6012INSTITUCIONES FINANCIAERAS    -00000000000030000152PESO DE CHILE                 -000000000000000002018-06-01152CHILE                                                   2018-05-23MAUTAUTORIZADOR         0000                    000001377547000000000000000000000000000                      00                                        +0000000000000000000000040012018-06-0100000000000000002N0NO ANULADO0MOVIMIENTO NO RETENIDO0PENDIENTE                                        0000000000000000000000+000000000000000001CREDITO   LREV                    00                    00000000    
0987000000000170D                                                                                           000000000008098700010000000000025176081136288807      OP000000000008152PESO DE CHILE                 0NORMAL         3001CARGA TRANSFERENCIA           2018-06-0500000000000000000000000000                              -00000000000000000-00000000000030000000000000774199000000000000021                           6012INSTITUCIONES FINANCIAERAS    -00000000000030000152PESO DE CHILE                 -000000000000000002018-06-05152CHILE                                                   2018-05-23MAUTAUTORIZADOR         0000                    000001377746000000000000000000000000000                      00                                        +0000000000000000000000090012018-06-0500000000000000002N0NO ANULADO0MOVIMIENTO NO RETENIDO0PENDIENTE                                        0000000000000000000000+000000000000000001CREDITO   LREV                    00                    00000000    
0987000000000170D                                                                                           000000000009098700010000000000025176081136288807      OP000000000009152PESO DE CHILE                 0NORMAL         3003RETIRO TRANSFERENCIA          2018-06-0500000000000000000000000000                              +00000000000000000+00000000000020000000000000974199000000000000021                           6012INSTITUCIONES FINANCIAERAS    +00000000000020000152PESO DE CHILE                 +000000000000000002018-06-05152CHILE                                                   2018-05-23MAUTAUTORIZADOR         0000                    000001377747000000000000000000000000000                      00                                        +0000000000000000000000100012018-06-0500000000000000002N0NO ANULADO0MOVIMIENTO NO RETENIDO0PENDIENTE                                        0000000000000000000000+000000000000000001CREDITO   LREV                    00                    00000000    
0987000000000170D                                                                                           000000000010098700010000000000025176081136288807      OP000000000010152PESO DE CHILE                 0NORMAL         3000COMISION APERTURA             2018-06-0500000000000000000000000000                              +00000000000000000+00000000000000100000000000474199000000000000021                           6012INSTITUCIONES FINANCIAERAS    +00000000000000100152PESO DE CHILE                 +000000000000000002018-06-05152CHILE                                                   2018-05-23MAUTAUTORIZADOR         0000                    000001377748000000000000000000000000000                      00                                        +0000000000000000000000110012018-06-0500000000000000002N0NO ANULADO0MOVIMIENTO NO RETENIDO0PENDIENTE                                        0000000000000000000000+000000000000000001CREDITO   LREV                    00                    00000000    
0987000000000170D                                                                                           000000000011098700010000000000025176081136288807      OP000000000011152PESO DE CHILE                 0NORMAL         3001CARGA TRANSFERENCIA           2018-06-0400000000000000000000000000                              -00000000000000000-00000000000030000000000000725199000000000000021                           6012INSTITUCIONES FINANCIAERAS    -00000000000030000152PESO DE CHILE                 -000000000000000002018-06-04152CHILE                                                   2018-05-23MAUTAUTORIZADOR         0000                    000001377728000000000000000000000000000                      00                                        +0000000000000000000000050012018-06-0400000000000000002N0NO ANULADO0MOVIMIENTO NO RETENIDO0PENDIENTE                                        0000000000000000000000+000000000000000001CREDITO   LREV                    00                    00000000    
0987000000000170D                                                                                           000000000012098700010000000000025176081136288807      OP000000000012152PESO DE CHILE                 0NORMAL         3001CARGA TRANSFERENCIA           2018-06-0400000000000000000000000000                              -00000000000000000-00000000000030000000000000704199000000000000021                           6012INSTITUCIONES FINANCIAERAS    -00000000000030000152PESO DE CHILE                 -000000000000000002018-06-04152CHILE                                                   2018-05-23MAUTAUTORIZADOR         0000                    000001377741000000000000000000000000000                      00                                        +0000000000000000000000060012018-06-0400000000000000002N0NO ANULADO0MOVIMIENTO NO RETENIDO0PENDIENTE                                        0000000000000000000000+000000000000000001CREDITO   LREV                    00                    00000000    
0987000000000170D                                                                                           000000000013098700010000000000025176081136288807      OP000000000013152PESO DE CHILE                 0NORMAL         3001CARGA TRANSFERENCIA           2018-05-2900000000000000000000000000                              -00000000000000000-00000000000010000000000000784790000000000000021                           6012INSTITUCIONES FINANCIAERAS    -00000000000010000152PESO DE CHILE                 -000000000000000002018-06-01152CHILE                                                   2018-05-23MAUTAUTORIZADOR         0000                    000001377533000000000000000000000000000                      00                                        +0000000000000000000000030012018-06-0100000000000000002N0NO ANULADO0MOVIMIENTO NO RETENIDO0PENDIENTE                                        0000000000000000000000+000000000000000001CREDITO   LREV                    00                    00000000    
0987000000000170D                                                                                           000000000014098700010000000000025176081136288807      CE00000000001400000100010000000+                 +                                                          0000000000000000000000000003003RETIRO                        02COMISION                      +00000000000020000+00000000000008400-00000000000000000+00000000000000000                                                                                                                                                                                                                                                                                                                                                                                                                                                                                                                                                                                     
0987000000000170D                                                                                           000000000015098700010000000000025176081136288807      CE00000000001500000110010000000+                 +                                                          0000000000000000000000000003000COMISION APERTURA             02COMISION                      +00000000000000100+00000000000083200-00000000000000000+00000000000000000                                                                                                                                                                                                                                                                                                                                                                                                                                                                                                                                                                                     
0987000000000170D                                                                                           000000000016098700010000000000025176081136288807      CE00000000001600000120010000000+                 +                                                          0000000000000000000000000003005REEMISIÓN DE TARJETA          02COMISION                      +00000000000000100+00000000000083200-00000000000000000+00000000000000000                                                                                                                                                                                                                                                                                                                                                                                                                                                                                                                                                                                     
0987000000000170D                                                                                           000000000017098700010000000000035176081115089002      OP000000000017152PESO DE CHILE                 0NORMAL         3003RETIRO TRANSFERENCIA          2018-05-29                       000                              +00000000000000000+00000000000020000000000000      000000000000021COMERCIO PRUEBA CONSULTA   6012INSTITUCIONES FINANCIAERAS    +00000000000020000152PESO DE CHILE                 +000000000000000002018-05-29152CHILE                                                   2018-05-23ONLIONLINE              0000                    000001377356000000000000000000000000000                      00                                        +0000000000000000000000030012018-05-2900000000000000003N0NO ANULADO0MOVIMIENTO NO RETENIDO0PENDIENTE                                        0000000000000000000000+000000000000000001CREDITO   LREV                    00                    00000000    
0987000000000170D                                                                                           000000000018098700010000000000035176081115089002      OP000000000018152PESO DE CHILE                 0NORMAL         3002CARGA EFECTIVO COMERC MULTICAJ2018-05-29                       000                              -00000000000000000-00000000000300000000000000      000000000000021PRUEBAS                    6012INSTITUCIONES FINANCIAERAS    -00000000000300000152PESO DE CHILE                 -000000000000000002018-05-29152CHILE                                                   2018-05-23ONLIONLINE              0000                    000001377355000000000000000000000000000                      00                                        +0000000000000000000000020012018-05-2900000000000000003N0NO ANULADO0MOVIMIENTO NO RETENIDO0PENDIENTE                                        0000000000000000000000+000000000000000001CREDITO   LREV                    00                    00000000    
0987000000000170D                                                                                           000000000019098700010000000000035176081115089002      OP000000000019152PESO DE CHILE                 0NORMAL         3001CARGA TRANSFERENCIA           2018-05-29                       000                              -00000000000000000-00000000000200000000000000      000000000999999                           5812RESTAURANTES                  -00000000000200000152PESO DE CHILE                 -000000000000000002018-05-29152CHILE                                                   2018-05-23ONLIONLINE              0000                    000001377354000000000000000000000000000                      00                                        +0000000000000000000000010012018-05-2900000000000000003N0NO ANULADO0MOVIMIENTO NO RETENIDO0PENDIENTE                                        0000000000000000000000+000000000000000001CREDITO   LREV                    00                    00000000    
0987000000000170D                                                                                           000000000020098700010000000000035176081115089002      CE00000000002000000020010000000+                 -                                                          0000000000000000000000000003002CARGA EN EFECTIVO             02COMISION                      -00000000000300000-00000000000010000+00000000000000000-00000000000000000                                                                                                                                                                                                                                                                                                                                                                                                                                                                                                                                                                                     
0987000000000170D                                                                                           000000000021098700010000000000035176081115089002      CE00000000002100000030010000000+                 +                                                          0000000000000000000000000003003RETIRO                        02COMISION                      +00000000000020000+00000000000008400-00000000000000000+00000000000000000                                                                                                                                                                                                                                                                                                                                                                                                                                                                                                                                                                                     
0987000000000170D                                                                                           000000000022098700010000000000125176081135830583      OP000000000022152PESO DE CHILE                 0NORMAL         3001CARGA TRANSFERENCIA           2018-06-04                       000                              -00000000000000000-00000000025000000000000000      000000000000021                           6012INSTITUCIONES FINANCIAERAS    -00000000025000000152PESO DE CHILE                 -000000000000000002018-06-04152CHILE                                                   2018-05-23ONLIONLINE              0000                    000001377727000000000000000000000000000                      00                                        +0000000000000000000000010012018-06-0400000000000000012N0NO ANULADO0MOVIMIENTO NO RETENIDO0PENDIENTE                                        0000000000000000000000+000000000000000001CREDITO   LREV                    00                    00000000    
0987000000000170D                                                                                           000000000023098700010000000000125176081135830583      AU000000000023152PESO DE CHILE                 0NORMAL                        3017ANTICIPO DE CAJA              2018-06-0408:45:53840DOLAR                         +00000000000000200+00000000000114800000000000445964ABC123TESTMTF19Manual Cash Dis            6010OFICINA                       +00000000000114800152PESO DE CHILE                                                                                                                                                                                                                                                                                                                                                                                                                                                                                                                                  
0987000000000170D                                                                                           000000000024098700010000000000125176081135830583      AU000000000024152PESO DE CHILE                 0NORMAL                        3007COMPRA INTERNACIONAL          2018-06-0410:36:21840DOLAR                         +00000000000001100+00000000000631100000000000352740111111111111111Computer Softwa            5045SOFTWARE Y HARDWARE           +00000000000631100152PESO DE CHILE                                                                                                                                                                                                                                                                                                                                                                                                                                                                                                                                  
0987000000000170D                                                                                           000000000025098700010000000000125176081135830583      AU000000000025152PESO DE CHILE                 0NORMAL                        0005COMPRA                        2018-06-0605:03:09840DOLAR                         +00000000000001500+00000000000860600000000000033720ABC123TESTMTF19Misc Retail                5999TIENDAS ESPECIALIZADAS        +00000000000001500840DOLAR                                                                                                                                                                                                                                                                                                                                                                                                                                                                                                                                          
0987000000000170D                                                                                           000000000026098700010000000000125176081135830583      AU000000000026152PESO DE CHILE                 0NORMAL                        0005COMPRA                        2018-06-1212:03:22840DOLAR                         +00000000000000100+00000000000057400000000000023144ABC123TESTMTF19Misc Retail                5999TIENDAS ESPECIALIZADAS        +00000000000000100840DOLAR                                                                                                                                                                                                                                                                                                                                                                                                                                                                                                                                          
0987000000000170D                                                                                           000000000027098700010000000000125176081135830583      AU000000000027152PESO DE CHILE                 0NORMAL                        3007COMPRA INTERNACIONAL          2018-06-0407:35:29840DOLAR                         +00000000000001500+00000000000860600000000000343556ABC123TESTMTF19Misc Retail                5999TIENDAS ESPECIALIZADAS        +00000000000860600152PESO DE CHILE                                                                                                                                                                                                                                                                                                                                                                                                                                                                                                                                  
0987000000000170D                                                                                           000000000028098700010000000000125176081135830583      AU000000000028152PESO DE CHILE                 0NORMAL                        0005COMPRA                        2018-06-1212:02:49840DOLAR                         +00000000000000100+00000000000057400000000000015880ABC123TESTMTF19Misc Retail                5999TIENDAS ESPECIALIZADAS        +00000000000000100840DOLAR                                                                                                                                                                                                                                                                                                                                                                                                                                                                                                                                          
0987000000000170D                                                                                           000000000029098700010000000000125176081135830583      AU000000000029152PESO DE CHILE                 0NORMAL                        3007COMPRA INTERNACIONAL          2018-06-0608:01:31840DOLAR                         +00000000000010000+00000000005737600000000000005359123456789123456Rent a Wreck               3370RENT-A-WRECK                  +00000000000010000840DOLAR                                                                                                                                                                                                                                                                                                                                                                                                                                                                                                                                          
0987000000000170D                                                                                           000000000030098700010000000000125176081135830583      AU000000000030152PESO DE CHILE                 0NORMAL                        0005COMPRA                        2018-06-0408:51:08840DOLAR                         +00000000000000100+00000000000057400000000000501428ABC123TESTMTF19Moneysend Fundi            6538MONEY SEND FUNDING            +00000000000057400152PESO DE CHILE                                                                                                                                                                                                                                                                                                                                                                                                                                                                                                                                  
0987000000000170D                                                                                           000000000031098700010000000000125176081135830583      AU000000000031152PESO DE CHILE                 0NORMAL                        0005COMPRA                        2018-06-1211:35:10840DOLAR                         +00000000000000100+00000000000057400000000000341952ABC123TESTMTF19Misc Retail                5999TIENDAS ESPECIALIZADAS        +00000000000000100840DOLAR                                                                                                                                                                                                                                                                                                                                                                                                                                                                                                                                          
0987000000000170D                                                                                           000000000032098700010000000000125176081135830583      AU000000000032152PESO DE CHILE                 0NORMAL                        3007COMPRA INTERNACIONAL          2018-06-0409:00:05840DOLAR                         +00000000000000100+00000000000057400000000000005358123456789123456Misc Retail                5999TIENDAS ESPECIALIZADAS        +00000000000057400152PESO DE CHILE                                                                                                                                                                                                                                                                                                                                                                                                                                                                                                                                  
0987000000000170D                                                                                           000000000033098700010000000000125176081135830583      AU000000000033152PESO DE CHILE                 0NORMAL                        3007COMPRA INTERNACIONAL          2018-06-0404:16:04840DOLAR                         +00000000000000100+00000000000057400000000000005357123456789123456Misc Retail                5999TIENDAS ESPECIALIZADAS        +00000000000057400152PESO DE CHILE                                                                                                                                                                                                                                                                                                                                                                                                                                                                                                                                  
0987000000000170D                                                                                           000000000034098700010000000000125176081135830583      AU000000000034152PESO DE CHILE                 0NORMAL                        3007COMPRA INTERNACIONAL          2018-06-0410:33:54978EURO                          +00000000000007500+00000000005170300000000000330076000000000000910Computer Softwa            5045SOFTWARE Y HARDWARE           +00000000005170300152PESO DE CHILE                                                                                                                                                                                                                                                                                                                                                                                                                                                                                                                                  
0987000000000170D                                                                                           000000000035098700010000000000125176081135830583      AU000000000035152PESO DE CHILE                 0NORMAL                        3007COMPRA INTERNACIONAL          2018-06-0108:15:23840DOLAR                         +00000000000000100+00000000000057400000000000005356123456789123456Misc Retail                5999TIENDAS ESPECIALIZADAS        +00000000000057400152PESO DE CHILE                                                                                                                                                                                                                                                                                                                                                                                                                                                                                                                                  
0987000000000170D                                                                                           000000000036098700010000000000125176081135830583      AU000000000036152PESO DE CHILE                 0NORMAL                        3007COMPRA INTERNACIONAL          2018-06-0108:14:09840DOLAR                         +00000000000000100+00000000000057400000000000005355123456789123456Misc Retail                5999TIENDAS ESPECIALIZADAS        +00000000000057400152PESO DE CHILE                                                                                                                                                                                                                                                                                                                                                                                                                                                                                                                                  
0987000000000170D                                                                                           000000000037098700010000000000125176081135830583      AU000000000037152PESO DE CHILE                 0NORMAL                        3016MONEY SEND PAYMENT            2018-06-0510:55:08978EURO                          +00000000000007500+00000000005170300000000000541492000000000000910Merchant Paymen            6533PAYMENT TRANSACTION - MERCHANT+00000000000009011840DOLAR                                                                                                                                                                                                                                                                                                                                                                                                                                                                                                                                          
0987000000000170D                                                                                           000000000038098700010000000000125176081135830583      AU000000000038152PESO DE CHILE                 0NORMAL                        3016MONEY SEND PAYMENT            2018-06-0608:32:32978EURO                          +00000000000100000+00000000068936700000000000313948ABC123TESTMTF19Moneysend Inter            6537MONEY SEND INTRACOUNTRY       +00000000000120149840DOLAR                                                                                                                                                                                                                                                                                                                                                                                                                                                                                                                                          
0987000000000170D                                                                                           000000000039098700010000000000125176081135830583      AU000000000039152PESO DE CHILE                 0NORMAL                        0005COMPRA                        2018-06-1211:32:29840DOLAR                         +00000000000000100+00000000000057400000000000313888ABC123TESTMTF19Misc Retail                5999TIENDAS ESPECIALIZADAS        +00000000000000100840DOLAR                                                                                                                                                                                                                                                                                                                                                                                                                                                                                                                                          
0987000000000170D                                                                                           000000000040098700010000000000125176081135830583      AU000000000040152PESO DE CHILE                 0NORMAL                        3016MONEY SEND PAYMENT            2018-06-0608:30:35978EURO                          +00000000000100000+00000000068936700000000000294284ABC123TESTMTF19Moneysend Inter            6537MONEY SEND INTRACOUNTRY       +00000000000120149840DOLAR                                                                                                                                                                                                                                                                                                                                                                                                                                                                                                                                          
0987000000000170D                                                                                           000000000041098700010000000000125176081135830583      AU000000000041152PESO DE CHILE                 0NORMAL                        3016MONEY SEND PAYMENT            2018-06-0608:30:14978EURO                          +00000000000100000+00000000068936700000000000292120ABC123TESTMTF19Moneysend Inter            6537MONEY SEND INTRACOUNTRY       +00000000000120149840DOLAR                                                                                                                                                                                                                                                                                                                                                                                                                                                                                                                                          
0987000000000170D                                                                                           000000000042098700010000000000125176081135830583      AU000000000042152PESO DE CHILE                 0NORMAL                        0005COMPRA                        2018-06-1210:42:06840DOLAR                         +00000000000010100+00000000005795000000000000445132ABC123TESTMTF19Misc Retail                5999TIENDAS ESPECIALIZADAS        +00000000000010100840DOLAR                                                                                                                                                                                                                                                                                                                                                                                                                                                                                                                                          
0987000000000170D                                                                                           000000000043098700010000000000125176081135830583      AU000000000043152PESO DE CHILE                 0NORMAL                        0005COMPRA                        2018-06-0410:30:00840DOLAR                         +00000000000007500+00000000004303200000000000290612ID-Code02      Computer Softwa            5045SOFTWARE Y HARDWARE           +00000000004303200152PESO DE CHILE                                                                                                                                                                                                                                                                                                                                                                                                                                                                                                                                  
0987000000000170D                                                                                           000000000044098700010000000000125176081135830583      AU000000000044152PESO DE CHILE                 0NORMAL                        3006SUSCRIPCION INTERNACIONAL     2018-06-0606:28:19840DOLAR                         +00000000000001500+00000000000860600000000000272640ABC123TESTMTF19Misc Retail                5999TIENDAS ESPECIALIZADAS        +00000000000001500840DOLAR                                                                                                                                                                                                                                                                                                                                                                                                                                                                                                                                          
0987000000000170D                                                                                           000000000045098700010000000000125176081135830583      AU000000000045152PESO DE CHILE                 0NORMAL                        0005COMPRA                        2018-06-0511:44:53840DOLAR                         +00000000000000500+00000000000286900000000000435920ABC123TESTMTF19TRANSPRTN-SUBRB            4111TRANSPORTE DE PASAJERO DE CONM+00000000000000500840DOLAR                                                                                                                                                                                                                                                                                                                                                                                                                                                                                                                                          
0987000000000170D                                                                                           000000000046098700010000000000125176081135830583      AU000000000046152PESO DE CHILE                 0NORMAL                        0005COMPRA                        2018-06-1211:26:15840DOLAR                         +00000000000000100+00000000000057400000000000252424ABC123TESTMTF19Misc Retail                5999TIENDAS ESPECIALIZADAS        +00000000000000100840DOLAR                                                                                                                                                                                                                                                                                                                                                                                                                                                                                                                                          
0987000000000170D                                                                                           000000000047098700010000000000125176081135830583      AU000000000047152PESO DE CHILE                 0NORMAL                        0005COMPRA                        2018-06-0511:48:39840DOLAR                         +00000000000000500+00000000000286900000000000474684ABC123TESTMTF19TRANSPRTN-SUBRB            4111TRANSPORTE DE PASAJERO DE CONM+00000000000000500840DOLAR                                                                                                                                                                                                                                                                                                                                                                                                                                                                                                                                          
0987000000000170D                                                                                           000000000048098700010000000000125176081135830583      AU000000000048152PESO DE CHILE                 0NORMAL                        0005COMPRA                        2018-06-0410:25:58032PESO ARGENTINO                +00000000000000100+00000000000057400000000000250448687555537877464Misc Retail                5999TIENDAS ESPECIALIZADAS        +00000000000057400152PESO DE CHILE                                                                                                                                                                                                                                                                                                                                                                                                                                                                                                                                  
0987000000000170D                                                                                           000000000049098700010000000000125176081135830583      AU000000000049152PESO DE CHILE                 0NORMAL                        0005COMPRA                        2018-06-0607:58:17840DOLAR                         +00000000000001000+00000000000573800000000000572380ABC123TESTMTF19Misc Retail                5999TIENDAS ESPECIALIZADAS        +00000000000001000840DOLAR                                                                                                                                                                                                                                                                                                                                                                                                                                                                                                                                          
0987000000000170D                                                                                           000000000050098700010000000000125176081135830583      AU000000000050152PESO DE CHILE                 0NORMAL                        0005COMPRA                        2018-06-0608:00:02840DOLAR                         +00000000000001000+00000000000573800000000000590908ABC123TESTMTF19Misc Retail                5999TIENDAS ESPECIALIZADAS        +00000000000001000840DOLAR                                                                                                                                                                                                                                                                                                                                                                                                                                                                                                                                          
0987000000000170D                                                                                           000000000051098700010000000000125176081135830583      AU000000000051152PESO DE CHILE                 0NORMAL                        0005COMPRA                        2018-06-0410:54:50840DOLAR                         +00000000000008500+00000000004877000000000000535660ID-Code02      Ecom01                     5045SOFTWARE Y HARDWARE           +00000000004877000152PESO DE CHILE                                                                                                                                                                                                                                                                                                                                                                                                                                                                                                                                  
0987000000000170D                                                                                           000000000052098700010000000000125176081135830583      AU000000000052152PESO DE CHILE                 0NORMAL                        3016MONEY SEND PAYMENT            2018-06-0607:43:53840DOLAR                         +00000000000000100+00000000000057400000000000430032ID-Code02      Ecom01                     5045SOFTWARE Y HARDWARE           +00000000000000100840DOLAR                                                                                                                                                                                                                                                                                                                                                                                                                                                                                                                                          
0987000000000170D                                                                                           000000000053098700010000000000125176081135830583      AU000000000053152PESO DE CHILE                 0NORMAL                        0005COMPRA                        2018-06-0504:25:08840DOLAR                         +00000000000000100+00000000000057400000000000241552ABC123TESTMTF19Misc Food Store            5499COMIDAS DE AUTOSERVICIO       +00000000000000100840DOLAR                                                                                                                                                                                                                                                                                                                                                                                                                                                                                                                                          
0987000000000170D                                                                                           000000000054098700010000000000125176081135830583      AU000000000054152PESO DE CHILE                 0NORMAL                        3007COMPRA INTERNACIONAL          2018-06-0408:52:48840DOLAR                         +00000000000001500+00000000000860600000000000515492ABC123TESTMTF19Misc Retail                5999TIENDAS ESPECIALIZADAS        +00000000000860600152PESO DE CHILE                                                                                                                                                                                                                                                                                                                                                                                                                                                                                                                                  
0987000000000170D                                                                                           000000000055098700010000000000125176081135830583      AU000000000055152PESO DE CHILE                 0NORMAL                        0005COMPRA                        2018-06-0607:53:38840DOLAR                         +00000000000001000+00000000000573800000000000524452ABC123TESTMTF19Misc Retail                5999TIENDAS ESPECIALIZADAS        +00000000000001000840DOLAR                                                                                                                                                                                                                                                                                                                                                                                                                                                                                                                                          
0987000000000170D                                                                                           000000000056098700010000000000125176081135830583      AU000000000056152PESO DE CHILE                 0NORMAL                        3016MONEY SEND PAYMENT            2018-06-0608:23:48978EURO                          +00000000000000100+00000000000068900000000000225456ABC123TESTMTF19Moneysend Inter            6537MONEY SEND INTRACOUNTRY       +00000000000000120840DOLAR                                                                                                                                                                                                                                                                                                                                                                                                                                                                                                                                          
0987000000000170D                                                                                           000000000057098700010000000000125176081135830583      AU000000000057152PESO DE CHILE                 0NORMAL                        3006SUSCRIPCION INTERNACIONAL     2018-06-0607:55:18840DOLAR                         +00000000000001000+00000000000573800000000000542416ABC123TESTMTF19Misc Retail                5999TIENDAS ESPECIALIZADAS        +00000000000001000840DOLAR                                                                                                                                                                                                                                                                                                                                                                                                                                                                                                                                          
0987000000000170D                                                                                           000000000058098700010000000000125176081135830583      AU000000000058152PESO DE CHILE                 0NORMAL                        0005COMPRA                        2018-06-0408:54:50840DOLAR                         +00000000000000500+00000000000286900000000000535656ABC123TESTMTF19Misc Food Store            5499COMIDAS DE AUTOSERVICIO       +00000000000286900152PESO DE CHILE                                                                                                                                                                                                                                                                                                                                                                                                                                                                                                                                  
0987000000000170D                                                                                           000000000059098700010000000000125176081135830583      AU000000000059152PESO DE CHILE                 0NORMAL                        0005COMPRA                        2018-06-1210:42:00840DOLAR                         +00000000000010100+00000000005795000000000000410868ABC123TESTMTF19Misc Retail                5999TIENDAS ESPECIALIZADAS        +00000000000010100840DOLAR                                                                                                                                                                                                                                                                                                                                                                                                                                                                                                                                          
0987000000000170D                                                                                           000000000060098700010000000000125176081135830583      AU000000000060152PESO DE CHILE                 0NORMAL                        0005COMPRA                        2018-06-0606:20:06840DOLAR                         +00000000000001500+00000000000860600000000000201676ABC123TESTMTF19Misc Retail                5999TIENDAS ESPECIALIZADAS        +00000000000001500840DOLAR                                                                                                                                                                                                                                                                                                                                                                                                                                                                                                                                          
0987000000000170D                                                                                           000000000061098700010000000000125176081135830583      AU000000000061152PESO DE CHILE                 0NORMAL                        3016MONEY SEND PAYMENT            2018-06-0510:51:08840DOLAR                         +00000000000000100+00000000000057400000000000501564ABC123TESTMTF19Misc Food Store            5499COMIDAS DE AUTOSERVICIO       +00000000000000100840DOLAR                                                                                                                                                                                                                                                                                                                                                                                                                                                                                                                                          
0987000000000170D                                                                                           000000000062098700010000000000125176081135830583      AU000000000062152PESO DE CHILE                 0NORMAL                        3006SUSCRIPCION INTERNACIONAL     2018-06-0606:47:59840DOLAR                         +00000000000000100+00000000000057400000000000470604ID-Code02      Ecom01                     5045SOFTWARE Y HARDWARE           +00000000000000100840DOLAR                                                                                                                                                                                                                                                                                                                                                                                                                                                                                                                                          
0987000000000170D                                                                                           000000000063098700010000000000125176081135830583      AU000000000063152PESO DE CHILE                 0NORMAL                        0005COMPRA                        2018-06-0606:20:02840DOLAR                         +00000000000001500+00000000000860600000000000190912ABC123TESTMTF19Misc Retail                5999TIENDAS ESPECIALIZADAS        +00000000000001500840DOLAR                                                                                                                                                                                                                                                                                                                                                                                                                                                                                                                                          
0987000000000170D                                                                                           000000000064098700010000000000125176081135830583      AU000000000064152PESO DE CHILE                 0NORMAL                        3007COMPRA INTERNACIONAL          2018-06-0410:47:01840DOLAR                         +00000000000001100+00000000000631100000000000460732111111111111111Computer Softwa            5045SOFTWARE Y HARDWARE           +00000000000631100152PESO DE CHILE                                                                                                                                                                                                                                                                                                                                                                                                                                                                                                                                  
0987000000000170D                                                                                           000000000065098700010000000000125176081135830583      AU000000000065152PESO DE CHILE                 0NORMAL                        0005COMPRA                        2018-06-1210:56:39840DOLAR                         +00000000000000100+00000000000057400000000000554796ABC123TESTMTF19Misc Retail                5999TIENDAS ESPECIALIZADAS        +00000000000000100840DOLAR                                                                                                                                                                                                                                                                                                                                                                                                                                                                                                                                          
0987000000000170D                                                                                           000000000066098700010000000000125176081135830583      AU000000000066152PESO DE CHILE                 0NORMAL                        3007COMPRA INTERNACIONAL          2018-06-0410:50:42978EURO                          +00000000000001500+00000000001034100000000000494896ABC123TESTMTF19Misc Retail                5999TIENDAS ESPECIALIZADAS        +00000000001034100152PESO DE CHILE                                                                                                                                                                                                                                                                                                                                                                                                                                                                                                                                  
0987000000000170D                                                                                           000000000067098700010000000000125176081135830583      AU000000000067152PESO DE CHILE                 0NORMAL                        0005COMPRA                        2018-06-0411:40:51840DOLAR                         +00000000000000100+00000000000057400000000000395778ABC123TESTMTF19Misc Retail                5999TIENDAS ESPECIALIZADAS        +00000000000057400152PESO DE CHILE                                                                                                                                                                                                                                                                                                                                                                                                                                                                                                                                  
0987000000000170D                                                                                           000000000068098700010000000000125176081135830583      AU000000000068152PESO DE CHILE                 0NORMAL                        3016MONEY SEND PAYMENT            2018-06-0607:19:41978EURO                          +00000000000000100+00000000000068900000000000184868ABC123TESTMTF19Moneysend Inter            6537MONEY SEND INTRACOUNTRY       +00000000000000120840DOLAR                                                                                                                                                                                                                                                                                                                                                                                                                                                                                                                                          
0987000000000170D                                                                                           000000000069098700010000000000125176081135830583      AU000000000069152PESO DE CHILE                 0NORMAL                        0005COMPRA                        2018-06-0407:18:49840DOLAR                         +00000000000000100+00000000000057400000000000180028ABC123TESTMTF19Moneysend Fundi            6538MONEY SEND FUNDING            +00000000000057400152PESO DE CHILE                                                                                                                                                                                                                                                                                                                                                                                                                                                                                                                                  
0987000000000170D                                                                                           000000000070098700010000000000125176081135830583      AU000000000070152PESO DE CHILE                 0NORMAL                        3007COMPRA INTERNACIONAL          2018-06-0511:40:14840DOLAR                         +00000000000000500+00000000000286900000000000392156ABC123TESTMTF19TRANSPRTN-SUBRB            4111TRANSPORTE DE PASAJERO DE CONM+00000000000000500840DOLAR                                                                                                                                                                                                                                                                                                                                                                                                                                                                                                                                          
0987000000000170D                                                                                           000000000071098700010000000000125176081135830583      AU000000000071152PESO DE CHILE                 0NORMAL                        3007COMPRA INTERNACIONAL          2018-06-0412:16:51986REAL DE BRASIL                +00000000000000100+00000000000029400000000000155737ABC123TESTMTF19Misc Retail                5999TIENDAS ESPECIALIZADAS        +00000000000029400152PESO DE CHILE                                                                                                                                                                                                                                                                                                                                                                                                                                                                                                                                  
0987000000000170D                                                                                           000000000072098700010000000000125176081135830583      AU000000000072152PESO DE CHILE                 0NORMAL                        0005COMPRA                        2018-06-0505:16:05840DOLAR                         +00000000000001500+00000000000860600000000000151208ABC123TESTMTF19Misc Retail                5999TIENDAS ESPECIALIZADAS        +00000000000001500840DOLAR                                                                                                                                                                                                                                                                                                                                                                                                                                                                                                                                          
0987000000000170D                                                                                           000000000073098700010000000000125176081135830583      AU000000000073152PESO DE CHILE                 0NORMAL                        3007COMPRA INTERNACIONAL          2018-06-0410:38:37840DOLAR                         +00000000000001100+00000000000631100000000000374368111111111111111Computer Softwa            5045SOFTWARE Y HARDWARE           +00000000000631100152PESO DE CHILE                                                                                                                                                                                                                                                                                                                                                                                                                                                                                                                                  
0987000000000170D                                                                                           000000000074098700010000000000125176081135830583      AU000000000074152PESO DE CHILE                 0NORMAL                        3007COMPRA INTERNACIONAL          2018-06-0412:14:53986REAL DE BRASIL                +00000000000000100+00000000000029400000000000140073ABC123TESTMTF19Misc Retail                5999TIENDAS ESPECIALIZADAS        +00000000000029400152PESO DE CHILE                                                                                                                                                                                                                                                                                                                                                                                                                                                                                                                                  
0987000000000170D                                                                                           000000000075098700010000000000125176081135830583      AU000000000075152PESO DE CHILE                 0NORMAL                        0005COMPRA                        2018-06-0606:12:27840DOLAR                         +00000000000001500+00000000000860600000000000113348ABC123TESTMTF19Misc Retail                5999TIENDAS ESPECIALIZADAS        +00000000000001500840DOLAR                                                                                                                                                                                                                                                                                                                                                                                                                                                                                                                                          
0987000000000170D                                                                                           000000000076098700010000000000125176081135830583      AU000000000076152PESO DE CHILE                 0NORMAL                        3007COMPRA INTERNACIONAL          2018-06-0407:38:36840DOLAR                         +00000000000001500+00000000000860600000000000374220ABC123TESTMTF19Misc Retail                5999TIENDAS ESPECIALIZADAS        +00000000000860600152PESO DE CHILE                                                                                                                                                                                                                                                                                                                                                                                                                                                                                                                                  
0987000000000170D                                                                                           000000000077098700010000000000125176081135830583      AU000000000077152PESO DE CHILE                 0NORMAL                        0005COMPRA                        2018-06-0411:11:05840DOLAR                         +00000000000000100+00000000000057400000000000101183ID-Code02      Ecom01                     5045SOFTWARE Y HARDWARE           +00000000000057400152PESO DE CHILE                                                                                                                                                                                                                                                                                                                                                                                                                                                                                                                                  
0987000000000170D                                                                                           000000000078098700010000000000125176081135830583      AU000000000078152PESO DE CHILE                 0NORMAL                        3007COMPRA INTERNACIONAL          2018-06-0412:11:00840DOLAR                         +00000000000001500+00000000000860600000000000100609ABC123TESTMTF19Misc Retail                5999TIENDAS ESPECIALIZADAS        +00000000000860600152PESO DE CHILE                                                                                                                                                                                                                                                                                                                                                                                                                                                                                                                                  
0987000000000170D                                                                                           000000000079098700010000000000125176081135830583      AU000000000079152PESO DE CHILE                 0NORMAL                        3007COMPRA INTERNACIONAL          2018-06-0412:48:31840DOLAR                         +00000000000001100+00000000000631100000000000473764111111111111111Computer Softwa            5045SOFTWARE Y HARDWARE           +00000000000631100152PESO DE CHILE                                                                                                                                                                                                                                                                                                                                                                                                                                                                                                                                  
0987000000000170D                                                                                           000000000080098700010000000000125176081135830583      AU000000000080152PESO DE CHILE                 0NORMAL                        3016MONEY SEND PAYMENT            2018-06-0508:37:57978EURO                          +00000000000000100+00000000000068900000000000370464ABC123TESTMTF19Moneysend Inter            6537MONEY SEND INTRACOUNTRY       +00000000000000120840DOLAR                                                                                                                                                                                                                                                                                                                                                                                                                                                                                                                                          
0987000000000170D                                                                                           000000000081098700010000000000125176081135830583      AU000000000081152PESO DE CHILE                 0NORMAL                        3017ANTICIPO DE CAJA              2018-06-0408:10:50840DOLAR                         +00000000000000200+00000000000114800000000000095664ABC123TESTMTF19Manual Cash Dis            6010OFICINA                       +00000000000114800152PESO DE CHILE                                                                                                                                                                                                                                                                                                                                                                                                                                                                                                                                  
0987000000000170D                                                                                           000000000082098700010000000000125176081135830583      AU000000000082152PESO DE CHILE                 0NORMAL                        3017ANTICIPO DE CAJA              2018-06-1210:10:12840DOLAR                         +00000000000010000+00000000005737600000000000092104ABC123TESTMTF19Manual Cash Dis            6010OFICINA                       +00000000000010000840DOLAR                                                                                                                                                                                                                                                                                                                                                                                                                                                                                                                                          
0987000000000170D                                                                                           000000000083098700010000000000125176081135830583      AU000000000083152PESO DE CHILE                 0NORMAL                        0005COMPRA                        2018-06-1211:37:22840DOLAR                         +00000000000000100+00000000000057400000000000363116ABC123TESTMTF19Misc Retail                5999TIENDAS ESPECIALIZADAS        +00000000000000100840DOLAR                                                                                                                                                                                                                                                                                                                                                                                                                                                                                                                                          
0987000000000170D                                                                                           000000000084098700010000000000125176081135830583      AU000000000084152PESO DE CHILE                 0NORMAL                        0005COMPRA                        2018-06-1210:09:20840DOLAR                         +00000000000000100+00000000000057400000000000082940ABC123TESTMTF19Misc Retail                5999TIENDAS ESPECIALIZADAS        +00000000000000100840DOLAR                                                                                                                                                                                                                                                                                                                                                                                                                                                                                                                                          
0987000000000170D                                                                                           000000000085098700010000000000125176081135830583      AU000000000085152PESO DE CHILE                 0NORMAL                        0005COMPRA                        2018-06-1211:08:57840DOLAR                         +00000000000000100+00000000000057400000000000080660ABC123TESTMTF19Misc Retail                5999TIENDAS ESPECIALIZADAS        +00000000000000100840DOLAR                                                                                                                                                                                                                                                                                                                                                                                                                                                                                                                                          
0987000000000170D                                                                                           000000000086098700010000000000125176081135830583      AU000000000086152PESO DE CHILE                 0NORMAL                        3016MONEY SEND PAYMENT            2018-06-0510:53:37978EURO                          +00000000000007500+00000000005170300000000000524328ID-Code10      Merchant Paymen            6533PAYMENT TRANSACTION - MERCHANT+00000000000009011840DOLAR                                                                                                                                                                                                                                                                                                                                                                                                                                                                                                                                          
0987000000000170D                                                                                           000000000087098700010000000000125176081135830583      AU000000000087152PESO DE CHILE                 0NORMAL                        0005COMPRA                        2018-06-0604:36:45840DOLAR                         +00000000000001500+00000000000860600000000000355256ABC123TESTMTF19Misc Retail                5999TIENDAS ESPECIALIZADAS        +00000000000001500840DOLAR                                                                                                                                                                                                                                                                                                                                                                                                                                                                                                                                          
0987000000000170D                                                                                           000000000088098700010000000000125176081135830583      AU000000000088152PESO DE CHILE                 0NORMAL                        0005COMPRA                        2018-06-1210:08:55840DOLAR                         +00000000000000100+00000000000057400000000000080376ABC123TESTMTF19Misc Food Store            5499COMIDAS DE AUTOSERVICIO       +00000000000000100840DOLAR                                                                                                                                                                                                                                                                                                                                                                                                                                                                                                                                          
0987000000000170D                                                                                           000000000089098700010000000000125176081135830583      AU000000000089152PESO DE CHILE                 0NORMAL                        0005COMPRA                        2018-06-0412:08:55840DOLAR                         +00000000000000100+00000000000057400000000000080145ABC123TESTMTF19Misc Food Store            5499COMIDAS DE AUTOSERVICIO       +00000000000057400152PESO DE CHILE                                                                                                                                                                                                                                                                                                                                                                                                                                                                                                                                  
0987000000000170D                                                                                           000000000090098700010000000000125176081135830583      AU000000000090152PESO DE CHILE                 0NORMAL                        3007COMPRA INTERNACIONAL          2018-06-0410:36:37840DOLAR                         +00000000000001100+00000000000631100000000000354304111111111111111Computer Softwa            5045SOFTWARE Y HARDWARE           +00000000000631100152PESO DE CHILE                                                                                                                                                                                                                                                                                                                                                                                                                                                                                                                                  
0987000000000170D                                                                                           000000000091098700010000000000125176081135830583      AU000000000091152PESO DE CHILE                 0NORMAL                        0005COMPRA                        2018-06-0605:06:53840DOLAR                         +00000000000001500+00000000000860600000000000055984ABC123TESTMTF19Misc Retail                5999TIENDAS ESPECIALIZADAS        +00000000000001500840DOLAR                                                                                                                                                                                                                                                                                                                                                                                                                                                                                                                                          
0987000000000170D                                                                                           000000000092098700010000000000125176081135830583      AU000000000092152PESO DE CHILE                 0NORMAL                        0005COMPRA                        2018-06-0411:05:12840DOLAR                         +00000000000000100+00000000000057400000000000041819ID-Code02      Ecom01                     5045SOFTWARE Y HARDWARE           +00000000000057400152PESO DE CHILE                                                                                                                                                                                                                                                                                                                                                                                                                                                                                                                                  
0987000000000170D                                                                                           000000000093098700010000000000135176081111866841      OP000000000093152PESO DE CHILE                 0NORMAL         3001CARGA TRANSFERENCIA           2018-05-2900000000000000000000000000                              -00000000000000000-00000000049000000000000000788700000000000000013                           6012INSTITUCIONES FINANCIAERAS    -00000000049000000152PESO DE CHILE                 -000000000000000002018-06-08152CHILE                                                   2018-05-23MAUTAUTORIZADOR         0000                    000001378006000000000000000000000000000                      00                                        +0000000000000000000000010012018-06-0800000000000000013N0NO ANULADO0MOVIMIENTO NO RETENIDO0PENDIENTE                                        0000000000000000000000+000000000000000001CREDITO   LREV                    00                    00000000    
0987000000000170D                                                                                           000000000094098700010000000000135176081111866841      AU000000000094152PESO DE CHILE                 0NORMAL                        3016MONEY SEND PAYMENT            2018-06-1109:44:27978EURO                          +00000000000000100+00000000000068900000000000433640ID-Code10      Merchant Paymen            6533PAYMENT TRANSACTION - MERCHANT+00000000000000120840DOLAR                                                                                                                                                                                                                                                                                                                                                                                                                                                                                                                                          
0987000000000170D                                                                                           000000000095098700010000000000135176081111866841      AU000000000095152PESO DE CHILE                 0NORMAL                        3007COMPRA INTERNACIONAL          2018-06-1109:44:52978EURO                          +00000000000000100+00000000000068900000000000440904000000000000910Computer Softwa            5045SOFTWARE Y HARDWARE           +00000000000000120840DOLAR                                                                                                                                                                                                                                                                                                                                                                                                                                                                                                                                          
0987000000000170D                                                                                           000000000096098700010000000000135176081111866841      AU000000000096152PESO DE CHILE                 0NORMAL                        3007COMPRA INTERNACIONAL          2018-06-1109:45:31978EURO                          +00000000000000100+00000000000068900000000000444068000000000000910Computer Softwa            5045SOFTWARE Y HARDWARE           +00000000000000120840DOLAR                                                                                                                                                                                                                                                                                                                                                                                                                                                                                                                                          
0987000000000170D                                                                                           000000000097098700010000000000135176081111866841      AU000000000097152PESO DE CHILE                 0NORMAL                        0005COMPRA                        2018-06-1111:46:26840DOLAR                         +00000000000000100+00000000000057400000000000453510ABC123TESTMTF19TRANSPRTN-SUBRB            4111TRANSPORTE DE PASAJERO DE CONM+00000000000000100840DOLAR                                                                                                                                                                                                                                                                                                                                                                                                                                                                                                                                          
0987000000000170D                                                                                           000000000098098700010000000000135176081111866841      AU000000000098152PESO DE CHILE                 0NORMAL                        0005COMPRA                        2018-06-1111:48:37840DOLAR                         +00000000000000100+00000000000057400000000000474674ABC123TESTMTF19TRANSPRTN-SUBRB            4111TRANSPORTE DE PASAJERO DE CONM+00000000000000100840DOLAR                                                                                                                                                                                                                                                                                                                                                                                                                                                                                                                                          
