0987000000002170C2018-09-1211.03.59000000000018
0987000000002170D                                                                                           000000000001098700010000000000915176081182052131      OP000000000001152PESO DE CHILE                 0NORMAL         3001CARGA TRANSFERENCIA           2018-09-1200000000000000000000000000                              -00000000000000000-00000000003500000000000000124999000000000000021APXWP                      7299DIVERSOS SERVICIOS            -00000000003500000152PESO DE CHILE                 -000000000000000002018-09-12152CHILE                                                   2018-09-12ONLIAUTORIZADOR         0000                    000001390967000000000000000000000000000                      00                                        +0000000000000000000000010012018-09-1200000000000000082N0NO ANULADO0MOVIMIENTO NO RETENIDO0PENDIENTE                                        0000000000000000000000+000000000000000006PREPAGO   LREV                    00                    00000000
0987000000002170D                                                                                           000000000002098700010000000000915176081182052131      OP000000000002152PESO DE CHILE                 0NORMAL         3002CARGA EFECTIVO COMERC MULTICAJ2018-09-1200000000000000000000000000                              -00000000000000000-00000000007000000000000000155216000000000000021WQPXVMFG                   7299DIVERSOS SERVICIOS            -00000000007000000152PESO DE CHILE                 -000000000000000002018-09-12152CHILE                                                   2018-09-12ONLIAUTORIZADOR         0000                    000001390969000000000000000000000000000                      00                                        +0000000000000000000000020012018-09-1200000000000000082N0NO ANULADO0MOVIMIENTO NO RETENIDO0PENDIENTE                                        0000000000000000000000+000000000000000006PREPAGO   LREV                    00                    00000000
0987000000002170D                                                                                           000000000003098700010000000000915176081182052131      OP000000000003152PESO DE CHILE                 0NORMAL         3004RETIRO EFECTIVO COMERC MULTICJ2018-09-1200000000000000000000000000                              +00000000000000000+00000000001000000000000000011321000000000000021LGHNIH                     7299DIVERSOS SERVICIOS            +00000000001000000152PESO DE CHILE                 +000000000000000002018-09-12152CHILE                                                   2018-09-12ONLIAUTORIZADOR         0000                    000001390971000000000000000000000000000                      00                                        +0000000000000000000000040012018-09-1200000000000000082N0NO ANULADO0MOVIMIENTO NO RETENIDO0PENDIENTE                                        0000000000000000000000+000000000000000006PREPAGO   LREV                    00                    00000000
0987000000002170D                                                                                           000000000004098700010000000000915176081182052131      OP000000000004152PESO DE CHILE                 0NORMAL         3003RETIRO TRANSFERENCIA          2018-09-1200000000000000000000000000                              +00000000000000000+00000000002000000000000000991953000000000000021XKCVFDHR                   7299DIVERSOS SERVICIOS            +00000000002000000152PESO DE CHILE                 +000000000000000002018-09-12152CHILE                                                   2018-09-12ONLIAUTORIZADOR         0000                    000001390970000000000000000000000000000                      00                                        +0000000000000000000000030012018-09-1200000000000000082N0NO ANULADO0MOVIMIENTO NO RETENIDO0PENDIENTE                                        0000000000000000000000+000000000000000006PREPAGO   LREV                    00                    00000000
0987000000002170D                                                                                           000000000011098700010000000000925176081118047031      OP000000000011152PESO DE CHILE                 1CORRECTORA     3003ANULA RETIRO TRANSFERENCIA    2018-09-1200000000000000000000000000                              -00000000000000000-00000000000600000000000000912764000000000000021FZPTK                      7299DIVERSOS SERVICIOS            -00000000000600000152PESO DE CHILE                 -000000000000000002018-09-12152CHILE                                                   2018-09-12ONLIAUTORIZADOR         0000                    000001390980000000000000000000000000000                      00                                        +0000000000000000000000090012018-09-1200000000000000083N0NO ANULADO0MOVIMIENTO NO RETENIDO0PENDIENTE                                        0000000000000000000000+000000000000000006PREPAGO   LREV                    00                    00000000
0987000000002170D                                                                                           000000000012098700010000000000925176081118047031      OP000000000012152PESO DE CHILE                 0NORMAL         3002CARGA EFECTIVO COMERC MULTICAJ2018-09-1200000000000000000000000000                              -00000000000000000-00000000000500000000000000597782000000000000021XPSVS                      7299DIVERSOS SERVICIOS            -00000000000500000152PESO DE CHILE                 -000000000000000002018-09-12152CHILE                                                   2018-09-12ONLIAUTORIZADOR         0000                    000001390975000000000000000000000000000                      00                                        +0000000000000000000000040012018-09-1200000000000000083N0NO ANULADO0MOVIMIENTO NO RETENIDO0PENDIENTE                                        0000000000000000000000+000000000000000006PREPAGO   LREV                    00                    00000000
0987000000002170D                                                                                           000000000013098700010000000000925176081118047031      OP000000000013152PESO DE CHILE                 1CORRECTORA     3004ANULA RETIRO EFECT COMERC MULT2018-09-1200000000000000000000000000                              -00000000000000000-00000000000500000000000000078653000000000000021KGRJMAM                    7299DIVERSOS SERVICIOS            -00000000000500000152PESO DE CHILE                 -000000000000000002018-09-12152CHILE                                                   2018-09-12ONLIAUTORIZADOR         0000                    000001390978000000000000000000000000000                      00                                        +0000000000000000000000070012018-09-1200000000000000083N0NO ANULADO0MOVIMIENTO NO RETENIDO0PENDIENTE                                        0000000000000000000000+000000000000000006PREPAGO   LREV                    00                    00000000
0987000000002170D                                                                                           000000000014098700010000000000925176081118047031      OP000000000014152PESO DE CHILE                 0NORMAL         3004RETIRO EFECTIVO COMERC MULTICJ2018-09-1200000000000000000000000000                              +00000000000000000+00000000000500000000000000449669000000000000021TTJBZG                     7299DIVERSOS SERVICIOS            +00000000000500000152PESO DE CHILE                 +000000000000000002018-09-12152CHILE                                                   2018-09-12ONLIAUTORIZADOR         0000                    000001390977000000000000000000000000000                      00                                        +0000000000000000000000060012018-09-1200000000000000083N0NO ANULADO0MOVIMIENTO NO RETENIDO0PENDIENTE                                        0000000000000000000000+000000000000000006PREPAGO   LREV                    00                    00000000
0987000000002170D                                                                                           000000000015098700010000000000925176081118047031      OP000000000015152PESO DE CHILE                 1CORRECTORA     3002ANULA CARGA EFECT COMERC.MULT 2018-09-1200000000000000000000000000                              +00000000000000000+00000000000500000000000000843200000000000000021MEPXCGQM                   7299DIVERSOS SERVICIOS            +00000000000500000152PESO DE CHILE                 +000000000000000002018-09-12152CHILE                                                   2018-09-12ONLIAUTORIZADOR         0000                    000001390976000000000000000000000000000                      00                                        +0000000000000000000000050012018-09-1200000000000000083N0NO ANULADO0MOVIMIENTO NO RETENIDO0PENDIENTE                                        0000000000000000000000+000000000000000006PREPAGO   LREV                    00                    00000000
0987000000002170D                                                                                           000000000016098700010000000000925176081118047031      OP000000000016152PESO DE CHILE                 0NORMAL         3001CARGA TRANSFERENCIA           2018-09-1200000000000000000000000000                              -00000000000000000-00000000004000000000000000655740000000000000021NHWMD                      7299DIVERSOS SERVICIOS            -00000000004000000152PESO DE CHILE                 -000000000000000002018-09-12152CHILE                                                   2018-09-12ONLIAUTORIZADOR         0000                    000001390972000000000000000000000000000                      00                                        +0000000000000000000000010012018-09-1200000000000000083N0NO ANULADO0MOVIMIENTO NO RETENIDO0PENDIENTE                                        0000000000000000000000+000000000000000006PREPAGO   LREV                    00                    00000000
0987000000002170D                                                                                           000000000017098700010000000000925176081118047031      OP000000000017152PESO DE CHILE                 1CORRECTORA     3001ANULA CARGA TRANSFERENCIA     2018-09-1200000000000000000000000000                              +00000000000000000+00000000001000000000000000316288000000000000021FATRB                      7299DIVERSOS SERVICIOS            +00000000001000000152PESO DE CHILE                 +000000000000000002018-09-12152CHILE                                                   2018-09-12ONLIAUTORIZADOR         0000                    000001390974000000000000000000000000000                      00                                        +0000000000000000000000030012018-09-1200000000000000083N0NO ANULADO0MOVIMIENTO NO RETENIDO0PENDIENTE                                        0000000000000000000000+000000000000000006PREPAGO   LREV                    00                    00000000
0987000000002170D                                                                                           000000000018098700010000000000925176081118047031      OP000000000018152PESO DE CHILE                 0NORMAL         3003RETIRO TRANSFERENCIA          2018-09-1200000000000000000000000000                              +00000000000000000+00000000000600000000000000366929000000000000021FXPVUEJ                    7299DIVERSOS SERVICIOS            +00000000000600000152PESO DE CHILE                 +000000000000000002018-09-12152CHILE                                                   2018-09-12ONLIAUTORIZADOR         0000                    000001390979000000000000000000000000000                      00                                        +0000000000000000000000080012018-09-1200000000000000083N0NO ANULADO0MOVIMIENTO NO RETENIDO0PENDIENTE                                        0000000000000000000000+000000000000000006PREPAGO   LREV                    00                    00000000
0987000000002170D                                                                                           000000000019098700010000000000925176081118047031      OP000000000019152PESO DE CHILE                 0NORMAL         3001CARGA TRANSFERENCIA           2018-09-1200000000000000000000000000                              -00000000000000000-00000000001000000000000000831570000000000000021CCXDSFBU                   7299DIVERSOS SERVICIOS            -00000000001000000152PESO DE CHILE                 -000000000000000002018-09-12152CHILE                                                   2018-09-12ONLIAUTORIZADOR         0000                    000001390973000000000000000000000000000                      00                                        +0000000000000000000000020012018-09-1200000000000000083N0NO ANULADO0MOVIMIENTO NO RETENIDO0PENDIENTE                                        0000000000000000000000+000000000000000006PREPAGO   LREV                    00                    00000000
0987000000002170D                                                                                           000000000032098700010000000000935176081144225379      OP000000000032152PESO DE CHILE                 0NORMAL         3001CARGA TRANSFERENCIA           2018-09-1200000000000000000000000000                              -00000000000000000-00000000004500000000000000370836000000000000021GBBDCKTCF                  7299DIVERSOS SERVICIOS            -00000000004500000152PESO DE CHILE                 -000000000000000002018-09-12152CHILE                                                   2018-09-12ONLIAUTORIZADOR         0000                    000001390981000000000000000000000000000                      00                                        +0000000000000000000000010012018-09-1200000000000000084N0NO ANULADO0MOVIMIENTO NO RETENIDO0PENDIENTE                                        0000000000000000000000+000000000000000006PREPAGO   LREV                    00                    00000000
0987000000002170D                                                                                           000000000033098700010000000000935176081144225379      OP000000000033152PESO DE CHILE                 0NORMAL         3002CARGA EFECTIVO COMERC MULTICAJ2018-09-1200000000000000000000000000                              -00000000000000000-00000000004000000000000000191447000000000000021TNJJKNKEI                  7299DIVERSOS SERVICIOS            -00000000004000000152PESO DE CHILE                 -000000000000000002018-09-12152CHILE                                                   2018-09-12ONLIAUTORIZADOR         0000                    000001390983000000000000000000000000000                      00                                        +0000000000000000000000020012018-09-1200000000000000084N0NO ANULADO0MOVIMIENTO NO RETENIDO0PENDIENTE                                        0000000000000000000000+000000000000000006PREPAGO   LREV                    00                    00000000
0987000000002170D                                                                                           000000000034098700010000000000935176081144225379      OP000000000034152PESO DE CHILE                 0NORMAL         3001CARGA TRANSFERENCIA           2018-09-1200000000000000000000000000                              -00000000000000000-00000000040000000000000000197819000000000000021FZUHOGF                    7299DIVERSOS SERVICIOS            -00000000040000000152PESO DE CHILE                 -000000000000000002018-09-12152CHILE                                                   2018-09-12ONLIAUTORIZADOR         0000                    000001390984000000000000000000000000000                      00                                        +0000000000000000000000030012018-09-1200000000000000084N0NO ANULADO0MOVIMIENTO NO RETENIDO0PENDIENTE                                        0000000000000000000000+000000000000000006PREPAGO   LREV                    00                    00000000
0987000000002170P2018-09-1211.03.59000000000018
